:020000040800F2
:10000000B0050020D50000085906000827060008A2
:1000100000000000000000000000000000000000E0
:10002000000000000000000000000000DF060008E3
:100030000000000000000000D7060008E1060008EC
:10004000C90A0008D5060008DB060008A901000857
:10005000D90600089F010008A1010008A3010008BB
:10006000000000009B0100089D0100080000000046
:10007000990100081B0700081D0700080000000088
:100080001F070008E700000800000000150700082F
:100090000000000017070008190700082B060008D9
:1000A00000000000DD060008000000006D090008E7
:1000B000E700000800000000000000000000000051
:1000C0000348854600F03CF80048004765010008F9
:1000D000B00500200448804704480047FEE7FEE7DB
:1000E000FEE7FEE7FEE7FEE7E9060008C1000008BC
:1000F00030B50B46014600202022012409E00D46C0
:10010000D5409D4205D31D469540491B2546954047
:1001100040191546521E002DF1DC30BDD2B201E06F
:100120000270401C491EFBD270470022F6E710B552
:1001300013460A4604461946FFF7F0FF204610BD55
:10014000064C0125064E05E0E36807CC2B430C3C2A
:1001500098471034B442F7D3FFF7B6FFE40B00081A
:10016000040C000870B50125ED06002406E0A0008F
:100170002858A100064A5050601CC4B2302CF6DB4F
:10018000012040070349886000F0AEFC002070BDEC
:100190000000002000ED00E0704770477047704796
:1001A0007047704700BFFEE77047000070B5034618
:1001B0000022CBE0012696400C683440002C71D020
:1001C0004D68022D02D04D68122D15D1D508AE0014
:1001D0001D462035A8595507EE0E0F25B540064699
:1001E000AE4330465607F60E0D69B5402843D50894
:1001F000AD001E4620367051186856000325B540E4
:100200000646AE4330460D79AD07AD0F5600B540FA
:10021000284318604D68012D08D04D68022D05D087
:100220004D68112D02D04D68122D18D198685600D6
:100230000325B5400646AE4330465600CD68B5406E
:10024000284398605868012595400646AE433046DD
:1002500010264D6835402D09954028435860D868D0
:1002600056000325B5400646AE43304656008D681D
:10027000B5402843D860012636074D683540B54261
:1002800063D1354D9608B600A8599507EE0E0F2597
:10029000B5400646AE43304605252D07AB4202D198
:1002A000002506E051E02D4DAB4201D1012500E0D3
:1002B00002259607F60EB5402843274D9608B6004E
:1002C000A851254D203528680546A5432846012616
:1002D00036044D683540B54202D1054625432846CF
:1002E0001D4D2035286068680546A543284601262F
:1002F00076044D683540B54202D10546254328466F
:10030000154D20356860144D603D28680546A543AD
:100310002846012636054D683540B54202D10546CE
:10032000254328460C4D603D286068680546A54376
:100330002846012676054D683540B54202D105466E
:1003400025432846044D603D6860521C0D68D54029
:10035000002D00D02EE770BD601802400004005050
:100360000148006870470000CC0000200348006886
:10037000034909684018014908607047CC00002013
:10038000D400002010B50024032000F009F8002854
:1003900001D0012401E000F033F8204610BD000038
:1003A000F8B5044600251348006800281ED01148FF
:1003B00001687D20C000FFF79BFE074639460E48C6
:1003C0000068FFF795FE064600F04CF800280BD1B8
:1003D000042C07D200222146401E00F01FF80748D7
:1003E000046004E0012502E0012500E00125284623
:1003F000F8BD0000D4000020C0000020D000002084
:100400007047000000BFC206D20E01219140024A8F
:10041000116000BF7047000000E100E070B50446C5
:100420000D4616462946204600F018F970BD00001A
:100430000148006870470000C000002000B5FFF7C9
:10044000F7FF06498968072212031140090B89004A
:10045000034A515CC906C90EC84000BD00100240E5
:10046000A40B000870B504462546681E0949884259
:1004700001D901200CE0681E074948610321081FCB
:1004800000F0ECF800200449886107200861002092
:1004900070BD0000FFFFFF0000E000E010B5044663
:1004A000002C01D1012010BDA069002800D000E07F
:1004B00000BF4520005D002805D1002144200155E2
:1004C000204600F030F82421452001552068C068FE
:1004D0000121490388432168C860204600F03CF9A7
:1004E000206A002802D0204600F01AF9206800692E
:1004F0000121C902884321680861206840690821F8
:100500008843216848612068C06801214903084385
:100510002168C8600020A0642021452001554620A4
:1005200001550020BFE77047FFB583B004460D4674
:100530001746002001904520005D202871D1002D34
:1005400001D0002F02D1012007B0F0BD0121090325
:10055000A068884208D12069002805D1E807C00FAB
:10056000002801D00120EFE700BF4420005D0128F2
:1005700001D10220E8E701214420015500BF0020FD
:10058000A064212145200155FFF7EAFE019027864E
:10059000678601210903A068884205D120690028E7
:1005A00002D10026029502E02E46002002901EE0B5
:1005B00006980090002280212046019B00F09EF9C1
:1005C000002801D00320BFE7002E09D1029800883F
:1005D000C005C00D216848600298801C029003E0AD
:1005E000307821684860761C608E401E6086608E80
:1005F0000028DDD106980090002240212046019B72
:1006000000F07CF9002801D003209DE7202145203F
:10061000015500BF00214420015500BF002093E791
:10062000FFE7022090E700BFFEE7704770B5044681
:100630000D460220052109078861054B2A462146FF
:100640000448FFF771FF022005210907886270BD89
:1006500088130000D80000207047000010B5002863
:1006600019DA1A4A03071B0F083B9B089B00D25854
:100670008307DC0EFF23A3409A438B071B0E8407DE
:10068000E40EA3401A43114B0407240F083CA408AE
:10069000A4001A5118E00E4A03231B02D218830843
:1006A0009B00D2588307DC0EFF23A3409A438B079D
:1006B0001B0E8407E40EA3401A43054B03242402B7
:1006C0001B198408A4001A5110BD00001CED00E0A5
:1006D00000E100E07047704770477047704770470F
:1006E00010B5FFF743FE10BD07484068000C00043A
:1006F00001214903401805494968084302494860F7
:10070000C80303498860704700100240000FFF1FB4
:1007100000ED00E0704770477047704770477047C2
:100720004022016A1140002915D0016849699201EF
:100730009143426A11430268516101221203416AE6
:10074000914208D101684969032252039143826AA8
:100750001143026851617047FEB504462068006984
:10076000012149038843E168084321680861216940
:10077000A06808436169084302902068C0685E4928
:100780000840029908432168C860E0690290206827
:1007900040690121C90288430299084321684861E0
:1007A00020684069032109028843A1690843216840
:1007B00048610121C902E06988424ED1FFF73EFE3F
:1007C00005466268510019226A431046FFF790FC03
:1007D00006466421FFF78CFC07016268510019226C
:1007E0006A431046FFF784FC0646626851001922EE
:1007F0006A431046FFF77CFC64210090FFF778FC09
:1008000064214843301AC00032300190FFF770FC79
:10081000F821084040003F186268510019226A43DD
:100820001046FFF765FC06466268510019226A43CC
:100830001046FFF75DFC64210090FFF759FC64212E
:100840004843301AC00032300190FFF751FC400796
:10085000400F3818216888604CE0FFF7EFFD05462F
:100860006268910019226A431046FFF741FC064670
:100870006421FFF73DFC07016268910019226A4379
:100880001046FFF735FC06466268910019226A435C
:100890001046FFF72DFC64210090FFF729FC64212E
:1008A0004843301A000132300190FFF721FCF0215B
:1008B00008403F186268910019226A431046FFF70A
:1008C00017FC06466268910019226A431046FFF73A
:1008D0000FFC64210090FFF70BFC64214843301AA1
:1008E000000132300190FFF703FC0007000F3818B9
:1008F00021688860FEBD0000F3E9FFFFFFB581B00D
:1009000004460D4617460A9E24E0701C002821D09C
:10091000002E05D0FFF724FD0499401AB04219D9E2
:100920002068C068FF21A13188432168C860206821
:100930004069400840002168486120214520015558
:100940004620015500BF00214420015500BF03206F
:1009500005B0F0BD206800682840A84201D1012000
:1009600000E00020B842D0D00020F1E708B51549DA
:10097000096808682021014000290FD01149096841
:100980004968114A114B1B78D154104909787729CD
:1009900004DA0E490978491C0C4A117010210140F3
:1009A00000290DD0074909680968009100BF054971
:1009B00009684968009100BF0121054A117000BF14
:1009C00008BD0000D800002038010020C900002028
:1009D000CA00002000B587B0142102A8FFF7A5FBCC
:1009E00000BF364800680121890308433349086085
:1009F00008460068012189030840019000BF00BF3C
:100A000000BF2E484038406B012108432B49403934
:100A100048630846406BC007C00F019000BF00BF8D
:100A20002748284908604B20C0014860002125481C
:100A30008160C160016181610C214161FFF72EFD80
:100A4000002801D0FFF7AEFB0C200290022003909B
:100A500001200490032005900120069002A90520A2
:100A60000007FFF7A3FB012200211B20FFF7D6FCA4
:100A70001B20FFF7C7FC13480068C068202108430B
:100A800010490968C8600F480068C0681021084311
:100A90000C490968C8600220052109078862029094
:100AA00001200390002004900320059002A9052056
:100AB0000007FFF77BFB07B000BD000040100240BD
:100AC00000380140D8000020704702E008C8121F1B
:100AD00008C1002AFAD170477047002001E001C127
:100AE000121F002AFBD170471CB5FFF74BFCFFF724
:100AF00071FF27E0FFF734FC13490968401A1349D6
:100B000088421FD31248007800280BD111A103C9D5
:100B10000191009007216846FFF788FD01200C49EC
:100B200008700BE00DA103C90191009007216846F0
:100B3000FFF77CFD00200649087000BFFFF710FC9E
:100B400001490860D6E70000C400002060EA000008
:100B5000C8000020FF01000700010900FF01000795
:100B600000020A0000000000000000000000000079
:100B70000000000000000000000000000000000075
:100B8000000000000100000002000000030000005F
:100B9000040000000600000007000000080000003C
:100BA000090000000000000000000000000000003C
:100BB000000000000100000002000000030000002F
:100BC0000400000000093D0000127A000024F40037
:100BD0004086510100366E0100093D0000093D00CC
:100BE00000093D00040C000800000020D8000000AF
:100BF000CA0A0008DC0C0008D8000020D804000055
:100C0000DA0A0008000000000000000000000000F8
:100C100000000000000000000000000000000000D4
:100C200000000000000000000000000000000000C4
:100C300000000000000000000000000000000000B4
:100C400000000000000000000000000000000000A4
:100C50000000000000000000000000000000000094
:100C60000000000000000000000000000000000084
:100C70000000000000000000000000000000000074
:100C80000000000000000000000000000000000064
:100C90000000000000000000000000000000000054
:100CA0000000000000000000000000000000000044
:100CB0000000000000000000000000000000000034
:100CC0000000000000127A00000000000000000098
:0C0CD00000000000040000000100000013
:04000005080000C12E
:00000001FF
