:020000040800F2
:10000000C81400204D0100087D070008770700088C
:1000100000000000000000000000000000000000E0
:1000200000000000000000000000000009080008B7
:100030000000000000000000FB0700081108000895
:10004000410C0008F9070008050800085D020008D7
:100050000308000853020008550200085702000870
:10006000000000004F0200085102000800000000DC
:100070004D02000857080008590800080000000059
:100080005B0800085F01000800000000510800083C
:100090000000000053080008550800087B0700080E
:1000A0000000000007080008000000005F010008D1
:1000B000A10B00080000000000000000000000008C
:1000C0000348854600F078F8004800471902000808
:1000D000C8140020084B19680868203080F309888C
:1000E000022080F31488BFF36F8F3FBCAE4608BC7C
:1000F00004BC62B618470000E4000020EFF3108053
:1001000072B6704780F310887047EFF309800E4B8A
:100110001A6820381060F0C044464D4656465F4687
:10012000F0C008B572B601F009FB62B60CBC1168EC
:1001300008681030F0C8A046A946B246BB4680F316
:1001400009882038F0C81847E40000200448804798
:1001500004480047FEE7FEE7FEE7FEE7FEE7FEE7AE
:1001600025080008C100000830B50B4601460020F4
:100170002022012409E00D46D5409D4205D31D46AD
:100180009540491B2546954040191546521E002DA5
:10019000F1DC30BDD2B201E00270401C491EFBD23E
:1001A00070470022F6E710B513460A460446194682
:1001B000FFF7F0FF204610BD064C0125064E05E076
:1001C000E36807CC2B430C3C98471034B442F7D378
:1001D000FFF77AFF7C1C00089C1C000830B58C18C7
:1001E0000278401C13071B0F01D10378401C120931
:1001F00006D10278401C03E005780D70401C491CB4
:100200005B1EF9D101E00B70491C521EFBD1A142CB
:10021000E6D3002030BD000070B50125ED060024B6
:1002200006E0A0002858A100064A5050601CC4B245
:10023000302CF6DB012040070349886000F01CFDEC
:10024000002070BD0000002000ED00E07047704706
:10025000704770477047704700BFFEE77047000067
:1002600000B587B000BF0F48406B012108430D491E
:1002700048630846406BC007C00F019000BF00BF35
:10028000302002900220039001200490032005906A
:100290000920069002A90520000700F027F807B002
:1002A00000BD00000010024000B587B000BF0E483E
:1002B000406B012108430C4948630846406BC00766
:1002C000C00F019000BF00BF0420029001200390E6
:1002D000002004900220059002A90520000700F0EC
:1002E00005F807B000BD00000010024070B50346DD
:1002F0000022CBE0012696400C683440002C71D0DF
:100300004D68022D02D04D68122D15D1D508AE00D2
:100310001D462035A8595507EE0E0F25B540064657
:10032000AE4330465607F60E0D69B5402843D50852
:10033000AD001E4620367051186856000325B540A2
:100340000646AE4330460D79AD07AD0F5600B540B9
:10035000284318604D68012D08D04D68022D05D046
:100360004D68112D02D04D68122D18D19868560095
:100370000325B5400646AE4330465600CD68B5402D
:10038000284398605868012595400646AE4330469C
:1003900010264D6835402D09954028435860D8688F
:1003A00056000325B5400646AE43304656008D68DC
:1003B000B5402843D860012636074D683540B54220
:1003C00063D1354D9608B600A8599507EE0E0F2556
:1003D000B5400646AE43304605252D07AB4202D157
:1003E000002506E051E02D4DAB4201D1012500E092
:1003F00002259607F60EB5402843274D9608B6000D
:10040000A851254D203528680546A54328460126D4
:1004100036044D683540B54202D10546254328468D
:100420001D4D2035286068680546A54328460126ED
:1004300076044D683540B54202D10546254328462D
:10044000154D20356860144D603D28680546A5436C
:100450002846012636054D683540B54202D105468D
:10046000254328460C4D603D286068680546A54335
:100470002846012676054D683540B54202D105462D
:1004800025432846044D603D6860521C0D68D540E8
:10049000002D00D02EE770BD60180240000400500F
:1004A00042690A40002A01D0816200E08161704700
:1004B0000148006870470000D80000200348006829
:1004C000034909684018014908607047D8000020B6
:1004D000E000002010B50024032000F009F80028F7
:1004E00001D0012401E000F033F8204610BD0000E7
:1004F000F8B5044600251348006800281ED01148AE
:1005000001687D20C000FFF72FFE074639460E48E0
:100510000068FFF729FE064600F04CF800280BD1D2
:10052000042C07D200222146401E00F01FF8074885
:10053000046004E0012502E0012500E001252846D1
:10054000F8BD0000E0000020C0000020DC0000201A
:100550007047000000BFC206D20E01219140024A3E
:10056000116000BF7047000000E100E070B5044674
:100570000D4616462946204600F002F970BD0000DF
:100580000148006870470000C000002000B5FFF778
:10059000F7FF06498968072212031140090B8900F9
:1005A000034A515CC906C90EC84000BD0010024094
:1005B0003C1C000870B504462546681E094988425F
:1005C00001D901200CE0681E074948610321081F7A
:1005D00000F0D6F800200449886107200861002057
:1005E00070BD0000FFFFFF0000E000E010B5044612
:1005F000002C01D1012010BDA069002800D000E02E
:1006000000BF4520005D002805D100214420015590
:10061000204600F030F82421452001552068C068AC
:100620000121490388432168C860204600F032F95F
:10063000206A002802D0204600F010F920680069E6
:100640000121C902884321680861206840690821A6
:100650008843216848612068C06801214903084334
:100660002168C8600020A064202145200155462053
:1006700001550020BFE77047FFB583B004460D4623
:100680001746002001904520005D202871D1002DE3
:1006900001D0002F02D1012007B0F0BD01210903D4
:1006A000A068884208D12069002805D1E807C00F5A
:1006B000002801D00120EFE700BF4420005D0128A1
:1006C00001D10220E8E701214420015500BF0020AC
:1006D000A064212145200155FFF7EAFE01902786FD
:1006E000678601210903A068884205D12069002896
:1006F00002D10026029502E02E46002002901EE064
:1007000006980090002280212046019B00F094F979
:10071000002801D00320BFE7002E09D102980088ED
:10072000C005C00D216848600298801C029003E05B
:10073000307821684860761C608E401E6086608E2E
:100740000028DDD106980090002240212046019B20
:1007500000F072F9002801D003209DE720214520F8
:10076000015500BF00214420015500BF002093E740
:10077000FFE7022090E700BFFEE7704770470000E8
:1007800010B5002819DA1A4A03071B0F083B9B080B
:100790009B00D2588307DC0EFF23A3409A438B07AC
:1007A0001B0E8407E40EA3401A43114B0407240FC9
:1007B000083CA408A4001A5118E00E4A03231B02A7
:1007C000D21883089B00D2588307DC0EFF23A34076
:1007D0009A438B071B0E8407E40EA3401A43054B74
:1007E000032424021B198408A4001A5110BD000020
:1007F0001CED00E000E100E0704710B5FFF785FC5C
:1008000010BD70477047704710B500F0C1FE10BDB5
:1008100010B5FFF753FE01F03DF8012801D001F0BB
:100820000DF810BD07484068000C00040121490381
:10083000401805494968084302494860C80303490C
:100840008860704700100240000FFF1F00ED00E0BD
:100850007047704770477047704770474022016A81
:100860001140002915D00168496992019143426AFB
:1008700011430268516101221203416A914208D179
:1008800001684969032252039143826A1143026855
:1008900051617047FEB50446206800690121490393
:1008A0008843E1680843216808612169A06808431A
:1008B0006169084302902068C0685E490840029957
:1008C00008432168C860E0690290206840690121FE
:1008D000C902884302990843216848612068406939
:1008E000032109028843A169084321684861012165
:1008F000C902E06988424ED1FFF748FE05466268AA
:10090000510019226A431046FFF72EFC0646642167
:10091000FFF72AFC07016268510019226A4310465A
:10092000FFF722FC06466268510019226A4310460E
:10093000FFF71AFC64210090FFF716FC642148437E
:10094000301AC00032300190FFF70EFCF821084049
:1009500040003F186268510019226A431046FFF7B1
:1009600003FC06466268510019226A431046FFF7ED
:10097000FBFB64210090FFF7F7FB64214843301A2A
:10098000C00032300190FFF7EFFB4007400F3818EE
:10099000216888604CE0FFF7F9FD05466268910028
:1009A00019226A431046FFF7DFFB06466421FFF772
:1009B000DBFB07016268910019226A431046FFF7CA
:1009C000D3FB06466268910019226A431046FFF77E
:1009D000CBFB64210090FFF7C7FB64214843301A2A
:1009E000000132300190FFF7BFFBF02108403F18B3
:1009F0006268910019226A431046FFF7B5FB06466C
:100A00006268910019226A431046FFF7ADFB64212A
:100A10000090FFF7A9FB64214843301A00013230EF
:100A20000190FFF7A1FB0007000F381821688860CC
:100A3000FEBD0000F3E9FFFFFFB581B004460D469F
:100A400017460A9E24E0701C002821D0002E05D0F5
:100A5000FFF72EFD0499401AB04219D92068C068EA
:100A6000FF21A13188432168C8602068406940089F
:100A7000400021684861202145200155462001554C
:100A800000BF00214420015500BF032005B0F0BD88
:100A9000206800682840A84201D1012000E0002021
:100AA000B842D0D00020F1E708B500BF1D48C06BA8
:100AB0000121490408431B49C8630846C06B012152
:100AC00049040840009000BF00BF1748174908605C
:100AD0004B20C0014860002114488160C160016161
:100AE00081610C214161FFF781FD002801D0FFF7F2
:100AF000B3FB002203211C20FFF738FD1C20FFF769
:100B000029FD0A480068C068202108430749096890
:100B1000C86006480068C068102108430349096896
:100B2000C86008BD0010024000440040440100209D
:100B300010B5FFF795FBFFF7B7FF10BD10B51448D0
:100B4000007800280FD00020114908701148007863
:100B500000281BDD0F4801780F4800F063F80020E3
:100B60000C49087012E00B48007800280EDDFFF7F2
:100B70009FFC0A490968401A0A2807D305480178EA
:100B8000054800F04FF800200249087010BD000031
:100B9000D1000020D000002090010020D4000020CF
:100BA00010B500F001F810BD38B5194800680468A8
:100BB00020202040002817D01548006840681549BB
:100BC000154A12788854144800787F2805DA1248AC
:100BD0000078401C1049087002E001200F4908709D
:100BE000FFF766FC0E4908601020204000280DD059
:100BF000074800680068009000BF0548006840682A
:100C0000009000BF01200549087000BF38BD0000FA
:100C10004401002090010020D0000020D1000020DD
:100C2000D400002070B504460D467D23DB002A4623
:100C300021460248FFF720FD70BD0000440100205E
:100C4000704702E008C8121F08C1002AFAD1704795
:100C50007047002001E001C1121F002AFBD170473C
:100C600008E0042105200007FFF71AFCFF20F530FB
:100C700000F0AAFCF5E700001CB5FFF72BFCFFF71E
:100C800013FBFFF755FF0948012100238022009143
:100C9000019007A1094800F0E3FD012801D0FFF70A
:100CA000DBFA00F019FD00BFFEE70000C4000020E1
:100CB00073746172745F7461736B00009513000844
:100CC000F8B50546124806681248076812480068D9
:100CD000009012480068001D00F099FB74190F483D
:100CE00000684460B44206D20C480168091D0098AF
:100CF00000F0B7FB0BE009480168091D384600F019
:100D0000B0FB07480068844201D205480460F8BD82
:100D1000F8000020E8000020EC000020E4000020A3
:100D20001401002010B5044600F0C2FB2F480068F3
:100D3000401C2E4908602E480068002808D12C4825
:100D400004600846006801280ED100F08BF90BE022
:100D500028480068002807D125480068C06AE16A71
:100D6000884201D82248046023480068401C224978
:100D7000086000BF00BF2149E06A0968884202D9C3
:100D80001E49E06A086000BF00BF1422E16A5143B7
:100D90001B4A89184868A0608268E260211D826849
:100DA000516081601422E16A5143154A8A186261D8
:100DB0001422E16A5143124A5158491C1423E26A31
:100DC0005A430F4B995000BF00BF00F07FFB09480A
:100DD0000068002809D000BF05480068C06AE16AC1
:100DE000884201D200F0E4FB00BF10BDF4000020F7
:100DF000E40000200001002010010020FC00002081
:100E00001002002010B516E000F052FB0C48C0683C
:100E1000C468201D00F0FBFA0A480068401E09491A
:100E2000086009480068401E0749086000F04EFB52
:100E3000204600F06DF8044800680028E4D110BD99
:100E4000B0020020F4000020F0000020F0B587B0D0
:100E500001260027002409E013A0005D03A908551E
:100E600003A8005D002800D102E0641C102CF3DB15
:100E700000BF002511E00E4FA8000E4940180021C8
:100E80000B4680220091019003A9384600F0E8FC4F
:100E90000646002E00D102E06D1C012DEBDB00BFE9
:100EA000304607B0F0BD000049444C45000000004A
:100EB000950F000818010020FFB585B016460E9F5B
:100EC000B00000F073F90546002D0FD04C2000F063
:100ED0006DF90446002C05D04C212046FFF761F93E
:100EE000256304E0284600F005FB00E00024002C08
:100EF0000BD000210F980097029403910190324685
:100F0000089B0699059800F051F8204609B0F0BDFD
:100F100010B50446206B00F0EDFA204600F0EAFA26
:100F200010BD000030B501231B0315484407640FB2
:100F3000002C05D0C01DC008C000114C041B1B1B99
:100F4000104C206000240F4D6C60C218083AD20883
:100F5000D2000D4C226000240B4D2D686C600A4DB0
:100F60002D682C600146541A4C60074C24680C60B4
:100F7000064D4C682C60064D4C682C6030BD00005E
:100F8000C4020020240100202C0100203401002094
:100F90003001002000BFFFF735FF0348006801283B
:100FA000F9D900F005FBF6E710020020FFB581B08B
:100FB0000E460A9F0C9C039A9100A522206BFFF716
:100FC000E9F8216B0398401E8000081800900098F3
:100FD000C008C000009000984007400F002801D1D1
:100FE000012000E00020002802D172B600BFFEE719
:100FF000002E10D0002508E0715D204634304155A8
:10100000705D002800D102E06D1C102DF4D300BFEC
:10101000002143200155052F01D2012000E00020CE
:10102000002802D172B600BFFEE7052F00D30427C7
:10103000E762201D00F012FA2046183000F00EFA88
:1010400024610520C01BA0616462049A0199009884
:1010500000F090F920600B98002801D00B980460F4
:1010600005B0F0BD10B5002406E0142161430D4A1F
:10107000881800F0E6F9641C052CF6D30A4800F045
:10108000E0F90A4800F0DDF9094800F0DAF909480A
:1010900000F0D7F904480849086004480749086087
:1010A00010BD000010020020740200208802002001
:1010B0009C020020B0020020E8000020EC0000208C
:1010C00010B501461F4800E0006803688B42FBD35F
:1010D0001C4B98420DD01C4B984204D31B4B98429A
:1010E00001D8012300E00023002B02D172B600BF1B
:1010F000FEE7024643689B188B4204D143684C6864
:101100001B19436001460A464B689B180468A342BA
:1011100011D10F4C03682468A34208D04B680468BF
:1011200064681B194B6003681B680B6005E0084B83
:101130001B680B6001E003680B60884200D001600F
:1011400010BD000024010020C4020020C3120020B2
:101150002C0100200A4800680068002801D1012005
:1011600000E00020002804D00020C04305490860AA
:1011700005E003480068C0680068024908607047DD
:10118000E80000201401002007480068401C0028E7
:1011900001D1012000E00020002802D172B600BF7A
:1011A000FEE772B600BFFEE740010020FEB505462F
:1011B00000200190002D23D00820C043854201D992
:1011C000012000E00020002819D108356807400FF1
:1011D000002815D06807400F0821081A0090002148
:1011E000C9430098081AA84201D2012000E000205B
:1011F000002802D100982D1802E0002500E000250B
:1012000000F094FA54480068002801D1FFF78AFEE4
:10121000E817401C00287DD0002DFCD04F48006806
:10122000854277D84E4E304604684E48844204D3F7
:101230004D48844201D8012000E00020002802D15E
:1012400072B600BFFEE70FE0264624684548844298
:1012500004D34548844201D8012000E00020002842
:1012600002D172B600BFFEE76068A84202D22068D1
:101270000028E9D138480068844257D030680830E7
:10128000019038490198884205D33749019888422E
:1012900001D8012000E00020002802D172B600BF72
:1012A000FEE7206830606068A84201D2012000E0BB
:1012B000002001214840002802D172B600BFFEE79D
:1012C0006068401B102813D967197807400F002861
:1012D00001D1012000E00020002802D172B600BF39
:1012E000FEE76068401B7860656030683860376092
:1012F0001A4960680968081A1849086008460068B1
:101300001A490968884203D21448006817490860DE
:10131000012100E00AE0C90760680843606000201E
:10132000206013480068401C1149086000F0A2FBCF
:101330000198002801D100F07EF801984007400F85
:10134000002801D1012000E00020002802D172B65F
:1013500000BFFEE70198FEBD2C01002030010020F7
:1013600024010020C4020020C31200203401002008
:1013700038010020001F01231B060360001F0160CD
:10138000001F034B036014380260203870470000D0
:10139000891100081CB504460F4802210023802251
:1013A000009101900DA1104800F05AFA012801D0D7
:1013B000FEF752FF0D4801210023C0220091019049
:1013C0000BA10E4800F04CFA012801D0FEF744FFB3
:1013D000002000F019F91CBDC80000206C65645F96
:1013E0007461736B00000000610C0008CC000020E9
:1013F00075736172745F7461736B0000011400088F
:1014000004E0FFF79BFB052000F0DEF8F9E701465A
:101410000A694B68886898608B68486858605068AB
:10142000884201D188685060002008611068401E21
:1014300010601068704772B600BFFEE772B600BF5A
:10144000FEE70146083141600021C9438160014641
:101450000831C16001610021016070470021016114
:10146000704710B502460B685C1C002C01D1106956
:1014700007E01046083000E04068446824689C4259
:10148000FAD944684C604C68A160886041600A6188
:101490001468641C146010BD42684A6093688B60D5
:1014A000936859609160086103685B1C0360704732
:1014B00072B605480068401C03490860BFF34F8FAF
:1014C000BFF36F8F7047000040010020084800689C
:1014D000002802D172B600BFFEE705480068401E32
:1014E0000349086008460068002800D162B67047CA
:1014F0004001002070B506463546002E3ED0083D1E
:101500002C461F48844204D31E48844201D801203F
:1015100000E00020002802D172B600BFFEE760683C
:10152000C00F002802D172B600BFFEE72068002875
:1015300001D1012000E00020002802D172B600BFD6
:10154000FEE76068C00F002818D02068002815D179
:10155000606840004008606000F0E8F80A49606890
:1015600009684018084908602046FFF7A9FD0748A8
:101570000068401C0549086000F07CFA70BD00005E
:10158000C4020020C3120020300100203C010020D2
:1015900070470000002004490861886103484861E1
:1015A000072008617047000000E000E03F1F0000D6
:1015B0000120000703494860BFF34F8FBFF36F8FCF
:1015C0007047000000ED00E070B504460025002CD7
:1015D00013D000F0ABF80B480068012800D100E000
:1015E0000020002802D172B600BFFEE7002120468D
:1015F000FFF766FB00F03EFA0546002D01D1FFF72C
:10160000D7FF70BD20010020F8B505460026FFF782
:101610004FFF002D02D12948006800E0284604460B
:10162000201DFFF7F4FEA06A002803D020461830E2
:10163000FFF7EDFE22480068401C214908601F4862
:101640000068844201D1012000E0002007461D48C7
:10165000006800280CD0002F0AD0211D1A48FFF77F
:101660001BFF1A480068401C18490860012606E064
:1016700017480068401E16490860FFF76BFDFFF72A
:1016800025FF012E02D02046FFF742FC0D480068DE
:10169000002811D00948006884420DD10D48006827
:1016A000002801D1012000E00020002802D172B6FC
:1016B00000BFFEE7FFF77CFFF8BD0000E40000205C
:1016C0001001002000010020B0020020F0000020E6
:1016D000F40000202001002010B5FFF7B7FB0446FE
:1016E000012C0DD172B60020C0430C4908600120C6
:1016F0000B49086000200B49086000F083F80AE0FD
:10170000601C002801D0012000E00020002802D148
:1017100072B600BFFEE70448006810BD1401002047
:1017200000010020F80000201C0100200248006891
:10173000401C0149086070472001002070B52B480B
:101740000068002803D00120294908604DE00020EE
:101750002749086000BF27480068046B264E3146C1
:101760002068884208D16068884205D1A068884214
:1017700002D1E068884209D01E4800680546343529
:1017800029461C480068FFF759FE00BF00BF00BF94
:101790001A48016805E0002902D172B600BFFEE7D1
:1017A000491E14204843164A1058002801D1012030
:1017B00000E000200028EED100BF14224A43104B65
:1017C000D018426852684260024608324368934229
:1017D00001D1C26842604268D268064B1A6000BFFD
:1017E0000648016000BF1846006870BD2001002057
:1017F00008010020E4000020A5A5A5A5FC0000200C
:101800001002002010B50B48006AFF2109040843AC
:10181000084908620846006AFF210906084305498D
:101820000862FFF7B7FE002003490860FEF752FC8C
:10183000002010BD00ED00E04001002010B5FEF7D3
:101840005DFC044600F038F8002803D001200007B2
:10185000024948602046FEF755FC10BD00ED00E04F
:10186000FFB583B006460C9F0D9800970190304657
:1018700004A90EC9FFF720FB0546002D04D0284619
:10188000FFF750FA012401E00024E443204607B0AA
:10189000F0BD000006490968002901D1012006E0D9
:1018A00004490968002901D1022000E000207047A6
:1018B0000001002020010020F8B5002000906248BF
:1018C000006800287ED161480068451C5F480560BB
:1018D000002D1DD100BF5E4800680068002801D1BE
:1018E000012000E00020002802D172B600BFFEE710
:1018F00057480768574800685549086055480760C9
:1019000055480068401C54490860FFF723FC00BF9D
:101910005248006885427ED300BF4D480068006889
:10192000002801D1012000E00020002804D0002080
:10193000C0434A4908606DE045480068C068C46813
:101940006668B54202D24548066063E000BF606940
:10195000E268A1688A60A268E1684A60211D426865
:101960008A4201D1E1684160002262610168491E3A
:10197000016000BFA06A002814D000BFA06A226ADC
:10198000E1698A60E269216A4A6021461831426849
:101990008A4201D1216A41600022A2620168491E87
:1019A000016000BF00BF00BF2D49E06A096888429E
:1019B00002D92B49E06A086000BF00BF1422E16A27
:1019C000514300E039E0274A89184868A0608268DE
:1019D000E260211D8268516081601422E16A5143F6
:1019E000204A8A1862611422E16A51431D4A515803
:1019F000491C1423E26A5A431A4B995000BF00BF96
:101A00001949E06A0968C96A884286D901200090AC
:101A100083E700E000BF14480068C06A142148430F
:101A200010490858012801D9012000900F4800688A
:101A3000002801D00120009004E00D480068401CFF
:101A40000B4908600098F8BD20010020F800002034
:101A5000E8000020EC0000200C0100201401002010
:101A6000FC00002010020020E400002008010020FB
:101A700004010020F8B500240026FFF719FD002519
:101A800056480068002801D0012000E0002000280E
:101A900002D172B600BFFEE750480068401E4F49B1
:101AA00008600846006800287ED14D48006800287C
:101AB0007AD061E04B48C068C46800BFA06A226A5F
:101AC000E1698A60E269216A4A6021461831426808
:101AD0008A4201D1216A41600022A2620168491E46
:101AE000016000BF00BF6069E268A1688A60A26807
:101AF000E1684A60211D42688A4201D1E168416083
:101B0000002262610168491E016000BF00BF00BF82
:101B10003549E06A0968884202D93349E06A0860B9
:101B200000BF00BF1422E16A5143304A8918486857
:101B3000A0608268E260211D826851608160142289
:101B4000E16A5143294A8A1862611422E16A5143C9
:101B5000264A5158491C1423E26A5A43234B995090
:101B600000BF00BF2249E06A0968C96A884203D9F8
:101B70000120A9001F4A50501A480068002801D1CE
:101B8000012000E00020002894D0002C01D0FFF7B5
:101B9000E1FA19480768002F10D000BFFFF78CFE4C
:101BA000002805D0012000E014E0A900114A50509F
:101BB0007F1E002FF2D100200F490860A8000D49B8
:101BC0000858002806D0012600BF09480068FFF722
:101BD000EFFC00BFFFF77AFC3046F8BD2001002083
:101BE000F40000209C020020FC00002010020020D5
:101BF000E400002008010020040100200000000093
:101C000000000000000000000000000000000000D4
:101C100000000000000000000000000001000000C3
:101C200002000000030000000400000006000000A5
:101C3000070000000800000009000000000000008C
:101C40000000000000000000000000000100000093
:101C500002000000030000000400000000093D0035
:101C600000127A000024F4004086510100366E0113
:101C700000093D0000093D0000093D009C1C0008D2
:101C80000000002044010000DC010008B01C000836
:101C90004401002084130000520C000801C2031A02
:101CA000127A4204023C0102240415AAAAAAAA003C
:04000005080000C12E
:00000001FF
